:020000040000FA
:040000008031A02883
:100008007E1480312000901E34282100901E342850
:100018007D080319342808307C0203182F28023081
:1000280022008E0620308E068E182728F601200022
:10003800AA1F2028F601F60A760C2200031C0E11CE
:1000480003180E159C2803102000AA0D0130F0009B
:100058007008FC079C28FC01FD0122008E129C28D8
:100068002000901E9E282100901E9E2879080319C2
:100078009E2807307B06031D442822000E128A287A
:100088000B307B06031D67287A03031D4E282000CA
:10009800AB018A2802307A02031C8A280A307A02C5
:1000A80003188A28003020000C1A0130F0007A0862
:1000B800093C890A6028F035890B5F287008F1002F
:1000C8007108AB078A280F307B06031D8A28220097
:1000D8000E167A08031D72288C1278280B307A06BF
:1000E800031D78288C16F9010B307A02031884282E
:1000F8007A08013EF200003003180130F300862828
:10010800F201F3017208F0007008FA000F307B0268
:10011800031896287B08013EF400003003180130CC
:10012800F5009828F401F5017408F0007008FB0048
:10013800200090127E1009008031A228F701F801F2
:10014800F901FA01FB01FC012000AB017E1020003F
:100158008431D92C2000A400592C3F308531C92581
:10016800803148308531C925803148308531C925ED
:10017800803148308531C92580313F308531C925E6
:10018800803100308531C92508007F308531C92587
:10019800803149308531C925803149308531C925BB
:1001A800803149308531C925803136308531C925BE
:1001B800803100308531C92508003E308531C92598
:1001C800803141308531C925803141308531C9259B
:1001D800803141308531C925803122308531C925AA
:1001E800803100308531C92508007F308531C92527
:1001F800803141308531C925803141308531C9256B
:10020800803141308531C92580313E308531C9255D
:10021800803100308531C92508007F308531C925F6
:10022800803149308531C925803149308531C9252A
:10023800803141308531C925803141308531C9252A
:10024800803100308531C92508007F308531C925C6
:10025800803150308531C925803150308531C925EC
:10026800803140308531C925803140308531C925FC
:10027800803100308531C92508003E308531C925D7
:10028800803141308531C925803149308531C925D2
:10029800803149308531C92580312E308531C925D5
:1002A800803100308531C92508007F308531C92566
:1002B800803108308531C925803108308531C9251C
:1002C800803108308531C92580317F308531C92595
:1002D800803100308531C925080000308531C925B5
:1002E800803141308531C92580317F308531C9253C
:1002F800803141308531C925803100308531C925AB
:10030800803100308531C925080006308531C9257E
:10031800803141308531C925803141308531C92549
:10032800803141308531C92580317E308531C925FC
:10033800803100308531C92508007F308531C925D5
:10034800803108308531C925803114308531C9257F
:10035800803122308531C925803141308531C92528
:10036800803100308531C92508007F308531C925A5
:10037800803101308531C925803101308531C92569
:10038800803101308531C925803101308531C92559
:10039800803100308531C92508007F308531C92575
:1003A800803120308531C925803110308531C9250B
:1003B800803120308531C92580317F308531C9258C
:1003C800803100308531C92508007F308531C92545
:1003D800803110308531C925803108308531C925F3
:1003E800803104308531C92580317F308531C92578
:1003F800803100308531C92508003E308531C92556
:10040800803141308531C925803141308531C92558
:10041800803141308531C92580313E308531C9254B
:10042800803100308531C92508007F308531C925E4
:10043800803148308531C925803148308531C9251A
:10044800803148308531C925803130308531C92522
:10045800803100308531C92508003E308531C925F5
:10046800803141308531C925803141308531C925F8
:10047800803142308531C92580313D308531C925EB
:10048800803100308531C92508007F308531C92584
:10049800803148308531C925803148308531C925BA
:1004A80080314C308531C925803133308531C925BB
:1004B800803100308531C925080032308531C925A1
:1004C800803149308531C925803149308531C92588
:1004D800803149308531C925803126308531C9259B
:1004E800803100308531C925080040308531C92563
:1004F800803140308531C92580317F308531C9252B
:10050800803140308531C925803140308531C92559
:10051800803100308531C92508007E308531C925F4
:10052800803101308531C925803101308531C925B7
:10053800803101308531C92580317E308531C9252A
:10054800803100308531C925080070308531C925D2
:1005580080310C308531C925803103308531C9257A
:1005680080310C308531C925803170308531C925FD
:10057800803100308531C92508007C308531C92596
:10058800803103308531C92580311C308531C9253A
:10059800803103308531C92580317C308531C925CA
:1005A800803100308531C925080063308531C9257F
:1005B800803114308531C925803108308531C9250D
:1005C800803114308531C925803163308531C925A2
:1005D800803100308531C925080009308531C925A9
:1005E800803112308531C92580310E308531C925D9
:1005F800803109308531C925803112308531C925CE
:10060800803100308531C925080060308531C92521
:10061800803110308531C92580310F308531C925A9
:10062800803110308531C925803160308531C92548
:10063800803100308531C925080043308531C9250E
:10064800803145308531C925803149308531C9250A
:10065800803151308531C925803161308531C925D6
:10066800803100308531C92508003E308531C925E3
:10067800803151308531C925803149308531C925CE
:10068800803145308531C92580313E308531C925D5
:10069800803100308531C925080000308531C925F1
:1006A800803121308531C92580317F308531C92598
:1006B800803101308531C925803100308531C92527
:1006C800803100308531C925080033308531C9258E
:1006D800803145308531C925803149308531C9257A
:1006E800803149308531C925803131308531C9257E
:1006F800803100308531C925080022308531C9256F
:10070800803141308531C925803149308531C9254D
:10071800803149308531C925803136308531C92548
:10072800803100308531C925080078308531C925E8
:10073800803108308531C925803108308531C92597
:10074800803108308531C92580317F308531C92510
:10075800803100308531C92508007A308531C925B6
:10076800803149308531C925803149308531C925E5
:10077800803149308531C925803146308531C925D8
:10078800803100308531C92508003E308531C925C2
:10079800803149308531C925803149308531C925B5
:1007A800803149308531C925803126308531C925C8
:1007B800803100308531C925080060308531C92570
:1007C800803141308531C925803146308531C92590
:1007D800803158308531C925803160308531C9254F
:1007E800803100308531C925080036308531C9256A
:1007F800803149308531C925803149308531C92555
:10080800803149308531C925803136308531C92557
:10081800803100308531C925080032308531C9253D
:10082800803149308531C925803149308531C92524
:10083800803149308531C92580313E308531C9251F
:10084800803100308531C925080000308531C9253F
:10085800803100308531C925803100308531C92586
:10086800803100308531C925803100308531C92576
:10087800803100308531C925080000308531C9250F
:10088800803100308531C925803124308531C92532
:10089800803100308531C925803100308531C92546
:1008A800803100308531C92508002408A200A30141
:1008B8002308003A0319612CD82C2208203A03197E
:1008C800292C103A0319392B013A0319512B033AF1
:1008D8000319692B013A0319812B073A0319992B3C
:1008E800013A0319B12B033A0319C92B013A031929
:1008F800E12B0F3A0319F92B013A0319112C033A8A
:100908000319412C7B3A0319B128033A0319C92862
:10091800013A0319E128073A0319F928013A03199A
:100928001129033A03192929013A031941290F3AD0
:1009380003195929013A03197129033A0319892915
:10094800013A0319A129073A0319B929013A0319E8
:10095800D129033A0319E929013A0319012A1F3A4F
:100968000319192A013A0319312A033A0319492AA2
:10097800013A0319612A073A0319792A013A031936
:10098800912A033A0319A92A013A0319C12A0F3AED
:100998000319D92A013A0319092B033A0319212B00
:1009A800223A0319F12AD82C080060303200990045
:1009B80003309F00D93021008C00C8308E002300FE
:1009C8008C018E018B170B172100901620009717AA
:1009D80095014030A50025089806BF3096002200F2
:1009E8008C140C158E140E158E120E168C1685315D
:1009F800912584318531682584318531ED2584310F
:100A08002000A20101308531B52584314130803183
:100A1800AE20843144308031AE208431433080317F
:100A2800AE20843120308031AE2084313A3080319C
:100A3800AE20843120308031AE2084313030803196
:100A4800AE20843178308031AE20843120002B08EC
:100A5800A5000430A536890B2E2D0A302502031C6B
:100A68003E2D2B08A5000430A536890B382D250806
:100A7800373E462D2B08A5000430A536890B412D9D
:100A88002508303EA600003003180130A7002608CC
:100A98008031AE2084310F3020002B05A5000A30AC
:100AA8002502031C5B2D2B080F39373E5E2D2B08C2
:100AB8000F39303EA800003003180130A90028087B
:100AC8008031AE208431012D2000A4010330A20022
:100AD8002208A4002408B03E8531DB25853110307A
:100AE8008531DB25853100308531DB2585312000D6
:100AF800A30100308531C925853101302000A200CD
:100B08002208A30784302302031C7D2DFF30A20096
:100B18002208A407A41B08006E2DAE308531DB2502
:100B28008531A0308531DB258531C0308531DB2525
:100B38008531A2308531DB2585312F308531DB25A4
:100B4800853121308531DB25853181308531DB25C3
:100B5800853120308531DB258531AF308531DB2586
:100B680008002000A3002308B03E8531DB2585312D
:100B7800200022080F39103E8531DB258531200001
:100B880022080F398531DB2508002000A10022004A
:100B98008C100E1420002108A0002008AA00FD01D6
:100BA800FD0A7D08031DD52D22008C1008002000A9
:100BB800A10022008C100E1020002108A00020089F
:100BC800AA00FD01FD0A7D08031DE72D22008C10F7
:0E0BD8000800F901F90A790803190800EF2D49
:020000040001F9
:08000E00ECFFF3FFFFFFFFFF11
:00000001FF
